{
  "address": "0xe7f1725E7734CE288F8367e1Bb143E90bb3F0512",
  "abi": [
    {
      "anonymous": false,
      "inputs": [
        {
          "indexed": true,
          "internalType": "address",
          "name": "addr",
          "type": "address"
        },
        {
          "indexed": true,
          "internalType": "address",
          "name": "newManager",
          "type": "address"
        }
      ],
      "name": "ManagerChanged",
      "type": "event"
    },
    {
      "anonymous": false,
      "inputs": [
        {
          "indexed": true,
          "internalType": "address",
          "name": "addr",
          "type": "address"
        },
        {
          "indexed": true,
          "internalType": "bytes32",
          "name": "_role",
          "type": "bytes32"
        },
        {
          "indexed": true,
          "internalType": "address",
          "name": "roleHolder",
          "type": "address"
        }
      ],
      "name": "RoleRemoved",
      "type": "event"
    },
    {
      "anonymous": false,
      "inputs": [
        {
          "indexed": true,
          "internalType": "address",
          "name": "addr",
          "type": "address"
        },
        {
          "indexed": true,
          "internalType": "bytes32",
          "name": "_role",
          "type": "bytes32"
        },
        {
          "indexed": true,
          "internalType": "address",
          "name": "roleHolder",
          "type": "address"
        }
      ],
      "name": "RoleSet",
      "type": "event"
    },
    {
      "inputs": [
        {
          "internalType": "address",
          "name": "_addr",
          "type": "address"
        }
      ],
      "name": "getManager",
      "outputs": [
        {
          "internalType": "address",
          "name": "",
          "type": "address"
        }
      ],
      "stateMutability": "view",
      "type": "function"
    },
    {
      "inputs": [
        {
          "internalType": "address",
          "name": "_roleProvider",
          "type": "address"
        },
        {
          "internalType": "bytes32",
          "name": "_role",
          "type": "bytes32"
        },
        {
          "internalType": "address",
          "name": "_roleHolder",
          "type": "address"
        }
      ],
      "name": "hasRole",
      "outputs": [
        {
          "internalType": "bool",
          "name": "",
          "type": "bool"
        }
      ],
      "stateMutability": "view",
      "type": "function"
    },
    {
      "inputs": [
        {
          "internalType": "address",
          "name": "_addr",
          "type": "address"
        },
        {
          "internalType": "bytes32",
          "name": "_role",
          "type": "bytes32"
        },
        {
          "internalType": "address",
          "name": "_roleHolder",
          "type": "address"
        }
      ],
      "name": "removeRole",
      "outputs": [],
      "stateMutability": "nonpayable",
      "type": "function"
    },
    {
      "inputs": [
        {
          "internalType": "address",
          "name": "_addr",
          "type": "address"
        },
        {
          "internalType": "address",
          "name": "_newManager",
          "type": "address"
        }
      ],
      "name": "setManager",
      "outputs": [],
      "stateMutability": "nonpayable",
      "type": "function"
    },
    {
      "inputs": [
        {
          "internalType": "address",
          "name": "_addr",
          "type": "address"
        },
        {
          "internalType": "bytes32",
          "name": "_role",
          "type": "bytes32"
        },
        {
          "internalType": "address",
          "name": "_roleHolder",
          "type": "address"
        }
      ],
      "name": "setRole",
      "outputs": [],
      "stateMutability": "nonpayable",
      "type": "function"
    }
  ],
  "transactionHash": "0x1318916864222e7ee8a525979147ef616ce6adaaa69411d259d7cd5575de1615",
  "args": [],
  "solcInputHash": "c7a53e8fe5f3eee5e067058ca1b62bee",
  "bytecode": "0x608060405234801561001057600080fd5b506104fa806100206000396000f3fe608060405234801561001057600080fd5b50600436106100575760003560e01c80632d3e579a1461005c5780633d584063146100a65780635df8122f146100e8578063a5841bfb14610118578063be14e0741461014e575b600080fd5b6100926004803603606081101561007257600080fd5b506001600160a01b03813581169160208101359160409091013516610184565b604080519115158252519081900360200190f35b6100cc600480360360208110156100bc57600080fd5b50356001600160a01b03166101d6565b604080516001600160a01b039092168252519081900360200190f35b610116600480360360408110156100fe57600080fd5b506001600160a01b0381358116916020013516610220565b005b6101166004803603606081101561012e57600080fd5b506001600160a01b038135811691602081013591604090910135166102f9565b6101166004803603606081101561016457600080fd5b506001600160a01b038135811691602081013591604090910135166103dd565b6000806001600160a01b0385161561019c578461019e565b335b6001600160a01b039081166000908152602081815260408083209783529681528682209590921681529390525050205460ff16919050565b6001600160a01b038181166000908152600160205260408120549091166101fe57508061021b565b506001600160a01b03808216600090815260016020526040902054165b919050565b3361022a836101d6565b6001600160a01b031614610277576040805162461bcd60e51b815260206004820152600f60248201526e2737ba103a34329036b0b730b3b2b960891b604482015290519081900360640190fd5b816001600160a01b0316816001600160a01b0316146102965780610299565b60005b6001600160a01b0383811660008181526001602052604080822080546001600160a01b0319169585169590951790945592519184169290917f605c2dbf762e5f7d60a546d42e7205dcb1b011ebc62a61736a57c9089d3a43509190a35050565b60006001600160a01b038416156103105783610312565b335b90503361031e826101d6565b6001600160a01b03161461036b576040805162461bcd60e51b815260206004820152600f60248201526e2737ba103a34329036b0b730b3b2b960891b604482015290519081900360640190fd5b8261037557600080fd5b6001600160a01b0380851660009081526020818152604080832087845282528083208685168085529252808320805460ff191690555190928692908516917f6555388e34e5c438feb51a6af2a77ca142794cdd1c3255a53aecb31e1644a78e9190a450505050565b60006001600160a01b038416156103f457836103f6565b335b905033610402826101d6565b6001600160a01b03161461044f576040805162461bcd60e51b815260206004820152600f60248201526e2737ba103a34329036b0b730b3b2b960891b604482015290519081900360640190fd5b8261045957600080fd5b6001600160a01b0380851660009081526020818152604080832087845282528083208685168085529252808320805460ff191660011790555190928692908516917f45c7355816d82583002c8dc0d20bc8ac6581e4c5db1589484ff4dc2b8cb609429190a45050505056fea26469706673582212202ab29560a8ad7df971016bf7ebe2348b2e7e98aef6d9802880f9fa47df3140f464736f6c63430007030033",
  "devdoc": {
    "kind": "dev",
    "methods": {},
    "version": 1
  },
  "userdoc": {
    "kind": "user",
    "methods": {},
    "version": 1
  },
  "storageLayout": {
    "storage": [
      {
        "astId": 453,
        "contract": "contracts/RoleRegistry.sol:RoleRegistry",
        "label": "roles",
        "offset": 0,
        "slot": "0",
        "type": "t_mapping(t_address,t_mapping(t_bytes32,t_mapping(t_address,t_bool)))"
      },
      {
        "astId": 457,
        "contract": "contracts/RoleRegistry.sol:RoleRegistry",
        "label": "managers",
        "offset": 0,
        "slot": "1",
        "type": "t_mapping(t_address,t_address)"
      }
    ],
    "types": {
      "t_address": {
        "encoding": "inplace",
        "label": "address",
        "numberOfBytes": "20"
      },
      "t_bool": {
        "encoding": "inplace",
        "label": "bool",
        "numberOfBytes": "1"
      },
      "t_bytes32": {
        "encoding": "inplace",
        "label": "bytes32",
        "numberOfBytes": "32"
      },
      "t_mapping(t_address,t_address)": {
        "encoding": "mapping",
        "key": "t_address",
        "label": "mapping(address => address)",
        "numberOfBytes": "32",
        "value": "t_address"
      },
      "t_mapping(t_address,t_bool)": {
        "encoding": "mapping",
        "key": "t_address",
        "label": "mapping(address => bool)",
        "numberOfBytes": "32",
        "value": "t_bool"
      },
      "t_mapping(t_address,t_mapping(t_bytes32,t_mapping(t_address,t_bool)))": {
        "encoding": "mapping",
        "key": "t_address",
        "label": "mapping(address => mapping(bytes32 => mapping(address => bool)))",
        "numberOfBytes": "32",
        "value": "t_mapping(t_bytes32,t_mapping(t_address,t_bool))"
      },
      "t_mapping(t_bytes32,t_mapping(t_address,t_bool))": {
        "encoding": "mapping",
        "key": "t_bytes32",
        "label": "mapping(bytes32 => mapping(address => bool))",
        "numberOfBytes": "32",
        "value": "t_mapping(t_address,t_bool)"
      }
    }
  }
}