{
  "address": "0x5bf5b11053e734690269C6B9D438F8C9d48F528A",
  "abi": [
    {
      "inputs": [
        {
          "internalType": "address[]",
          "name": "operators",
          "type": "address[]"
        }
      ],
      "stateMutability": "nonpayable",
      "type": "constructor"
    },
    {
      "inputs": [
        {
          "internalType": "address",
          "name": "addr",
          "type": "address"
        }
      ],
      "name": "authenticate",
      "outputs": [],
      "stateMutability": "nonpayable",
      "type": "function"
    },
    {
      "inputs": [],
      "name": "controllers",
      "outputs": [
        {
          "internalType": "address[]",
          "name": "",
          "type": "address[]"
        }
      ],
      "stateMutability": "view",
      "type": "function"
    },
    {
      "inputs": [
        {
          "internalType": "address",
          "name": "addr",
          "type": "address"
        },
        {
          "internalType": "uint256",
          "name": "latestAcceptedTimestamp",
          "type": "uint256"
        }
      ],
      "name": "hasAuthenticated",
      "outputs": [
        {
          "internalType": "bool",
          "name": "",
          "type": "bool"
        }
      ],
      "stateMutability": "view",
      "type": "function"
    },
    {
      "inputs": [
        {
          "internalType": "address",
          "name": "addr",
          "type": "address"
        }
      ],
      "name": "isAuthenticated",
      "outputs": [
        {
          "internalType": "bool",
          "name": "",
          "type": "bool"
        }
      ],
      "stateMutability": "view",
      "type": "function"
    },
    {
      "inputs": [
        {
          "internalType": "address",
          "name": "addr",
          "type": "address"
        }
      ],
      "name": "lastAuth",
      "outputs": [
        {
          "internalType": "uint256",
          "name": "",
          "type": "uint256"
        }
      ],
      "stateMutability": "view",
      "type": "function"
    },
    {
      "inputs": [
        {
          "internalType": "address[]",
          "name": "operators",
          "type": "address[]"
        }
      ],
      "name": "setControllers",
      "outputs": [],
      "stateMutability": "nonpayable",
      "type": "function"
    },
    {
      "inputs": [
        {
          "internalType": "uint256",
          "name": "time",
          "type": "uint256"
        }
      ],
      "name": "setTTL",
      "outputs": [],
      "stateMutability": "nonpayable",
      "type": "function"
    }
  ],
  "transactionHash": "0x77f7ea16196981960e17c7713796c3504c767341d0b523cddcf026d5881ee2f9",
  "args": [
    [
      "0xbb1c879cb7f5129ba026DfE1E5f30979D7978A65"
    ]
  ],
  "solcInputHash": "c63832686be6192a2535c56472d48941",
  "bytecode": "0x608060405261012c60015534801561001657600080fd5b506040516108203803806108208339818101604052602081101561003957600080fd5b810190808051604051939291908464010000000082111561005957600080fd5b90830190602082018581111561006e57600080fd5b825186602082028301116401000000008211171561008b57600080fd5b82525081516020918201928201910280838360005b838110156100b85781810151838201526020016100a0565b505050509050016040525050506100d4816100da60201b60201c565b50610221565b60005b60025481101561013657600060036000600284815481106100fa57fe5b6000918252602080832091909101546001600160a01b031683528201929092526040019020805460ff19169115159190911790556001016100dd565b5060005b815181101561018f5760016003600084848151811061015557fe5b6020908102919091018101516001600160a01b03168252810191909152604001600020805460ff191691151591909117905560010161013a565b5080516101a39060029060208401906101a7565b5050565b8280548282559060005260206000209081019282156101fc579160200282015b828111156101fc57825182546001600160a01b0319166001600160a01b039091161782556020909201916001909101906101c7565b5061020892915061020c565b5090565b5b80821115610208576000815560010161020d565b6105f0806102306000396000f3fe608060405234801561001057600080fd5b506004361061006d5760003560e01c806308e0d29d146100725780635c3ae6971461009a5780636c741950146100d25780637cc0c3a7146100ef578063b508c87214610147578063d15d415014610187578063ea74838a146101ad575b600080fd5b6100986004803603602081101561008857600080fd5b50356001600160a01b031661021b565b005b6100c0600480360360208110156100b057600080fd5b50356001600160a01b0316610289565b60408051918252519081900360200190f35b610098600480360360208110156100e857600080fd5b50356102a4565b6100f76102fb565b60408051602080825283518183015283519192839290830191858101910280838360005b8381101561013357818101518382015260200161011b565b505050509050019250505060405180910390f35b6101736004803603604081101561015d57600080fd5b506001600160a01b03813516906020013561035d565b604080519115158252519081900360200190f35b6101736004803603602081101561019d57600080fd5b50356001600160a01b03166103a0565b610098600480360360208110156101c357600080fd5b810190602081018135600160201b8111156101dd57600080fd5b8201836020820111156101ef57600080fd5b803590602001918460208302840111600160201b8311171561021057600080fd5b5090925090506103b0565b3360009081526003602052604090205460ff1661026d576040805162461bcd60e51b815260206004820152601c602482015260008051602061059b833981519152604482015290519081900360640190fd5b6001600160a01b03166000908152602081905260409020429055565b6001600160a01b031660009081526020819052604090205490565b3360009081526003602052604090205460ff166102f6576040805162461bcd60e51b815260206004820152601c602482015260008051602061059b833981519152604482015290519081900360640190fd5b600155565b6060600280548060200260200160405190810160405280929190818152602001828054801561035357602002820191906000526020600020905b81546001600160a01b03168152600190910190602001808311610335575b5050505050905090565b6001600160a01b03821660009081526020819052604081205480158015906103855750828110155b1561039457600191505061039a565b60009150505b92915050565b600061039a82600154420361035d565b3360009081526003602052604090205460ff16610402576040805162461bcd60e51b815260206004820152601c602482015260008051602061059b833981519152604482015290519081900360640190fd5b61043e82828080602002602001604051908101604052809392919081815260200183836020028082843760009201919091525061044292505050565b5050565b60005b60025481101561049e576000600360006002848154811061046257fe5b6000918252602080832091909101546001600160a01b031683528201929092526040019020805460ff1916911515919091179055600101610445565b5060005b81518110156104f7576001600360008484815181106104bd57fe5b6020908102919091018101516001600160a01b03168252810191909152604001600020805460ff19169115159190911790556001016104a2565b50805160028054828255600082905261043e927f405787fa12a823e0f2b7631cc41b3ba8828b3321ca811111fa75cd3aa3bb5ace91820191602086018215610575579160200282015b8281111561057557825182546001600160a01b0319166001600160a01b03909116178255602090920191600190910190610540565b50610581929150610585565b5090565b5b80821115610581576000815560010161058656fe6d73672e73656e646572206973206e6f7420636f6e74726f6c6c657200000000a26469706673582212205ffc2bcb784801ca4a0dd4f781b0fe37bd5877433759b7baf6c40ffd4389735564736f6c63430007030033",
  "devdoc": {
    "kind": "dev",
    "methods": {},
    "version": 1
  },
  "userdoc": {
    "kind": "user",
    "methods": {},
    "version": 1
  },
  "storageLayout": {
    "storage": [
      {
        "astId": 6,
        "contract": "contracts/AuthProvider.sol:AuthProvider",
        "label": "_auth",
        "offset": 0,
        "slot": "0",
        "type": "t_mapping(t_address,t_uint256)"
      },
      {
        "astId": 9,
        "contract": "contracts/AuthProvider.sol:AuthProvider",
        "label": "_ttl",
        "offset": 0,
        "slot": "1",
        "type": "t_uint256"
      },
      {
        "astId": 12,
        "contract": "contracts/AuthProvider.sol:AuthProvider",
        "label": "_controllers",
        "offset": 0,
        "slot": "2",
        "type": "t_array(t_address)dyn_storage"
      },
      {
        "astId": 16,
        "contract": "contracts/AuthProvider.sol:AuthProvider",
        "label": "_isController",
        "offset": 0,
        "slot": "3",
        "type": "t_mapping(t_address,t_bool)"
      }
    ],
    "types": {
      "t_address": {
        "encoding": "inplace",
        "label": "address",
        "numberOfBytes": "20"
      },
      "t_array(t_address)dyn_storage": {
        "base": "t_address",
        "encoding": "dynamic_array",
        "label": "address[]",
        "numberOfBytes": "32"
      },
      "t_bool": {
        "encoding": "inplace",
        "label": "bool",
        "numberOfBytes": "1"
      },
      "t_mapping(t_address,t_bool)": {
        "encoding": "mapping",
        "key": "t_address",
        "label": "mapping(address => bool)",
        "numberOfBytes": "32",
        "value": "t_bool"
      },
      "t_mapping(t_address,t_uint256)": {
        "encoding": "mapping",
        "key": "t_address",
        "label": "mapping(address => uint256)",
        "numberOfBytes": "32",
        "value": "t_uint256"
      },
      "t_uint256": {
        "encoding": "inplace",
        "label": "uint256",
        "numberOfBytes": "32"
      }
    }
  }
}