{
  "address": "0x04C89607413713Ec9775E14b954286519d836FEf",
  "abi": [
    {
      "inputs": [
        {
          "internalType": "address[]",
          "name": "operators",
          "type": "address[]"
        }
      ],
      "stateMutability": "nonpayable",
      "type": "constructor"
    },
    {
      "inputs": [
        {
          "internalType": "address",
          "name": "addr",
          "type": "address"
        }
      ],
      "name": "authenticate",
      "outputs": [],
      "stateMutability": "nonpayable",
      "type": "function"
    },
    {
      "inputs": [],
      "name": "controllers",
      "outputs": [
        {
          "internalType": "address[]",
          "name": "",
          "type": "address[]"
        }
      ],
      "stateMutability": "view",
      "type": "function"
    },
    {
      "inputs": [
        {
          "internalType": "address",
          "name": "addr",
          "type": "address"
        },
        {
          "internalType": "uint256",
          "name": "timestamp",
          "type": "uint256"
        }
      ],
      "name": "hasAuthenticated",
      "outputs": [
        {
          "internalType": "bool",
          "name": "",
          "type": "bool"
        }
      ],
      "stateMutability": "view",
      "type": "function"
    },
    {
      "inputs": [
        {
          "internalType": "address",
          "name": "addr",
          "type": "address"
        }
      ],
      "name": "isAuthenticated",
      "outputs": [
        {
          "internalType": "bool",
          "name": "",
          "type": "bool"
        }
      ],
      "stateMutability": "view",
      "type": "function"
    },
    {
      "inputs": [
        {
          "internalType": "address[]",
          "name": "operators",
          "type": "address[]"
        }
      ],
      "name": "setControllers",
      "outputs": [],
      "stateMutability": "nonpayable",
      "type": "function"
    }
  ],
  "transactionHash": "0xb9eab48f278e681e90a762f4d8c8a61774734aa2ce7f5c2f1fa3149f58493eed",
  "args": [
    [
      "0xbb1c879cb7f5129ba026DfE1E5f30979D7978A65"
    ]
  ],
  "solcInputHash": "fb9ae5ae4745d96aabef3d95d3ef26cc",
  "bytecode": "0x608060405261012c60015534801561001657600080fd5b506040516107373803806107378339818101604052602081101561003957600080fd5b810190808051604051939291908464010000000082111561005957600080fd5b90830190602082018581111561006e57600080fd5b825186602082028301116401000000008211171561008b57600080fd5b82525081516020918201928201910280838360005b838110156100b85781810151838201526020016100a0565b505050509050016040525050506100d4816100da60201b60201c565b50610221565b60005b60025481101561013657600060036000600284815481106100fa57fe5b6000918252602080832091909101546001600160a01b031683528201929092526040019020805460ff19169115159190911790556001016100dd565b5060005b815181101561018f5760016003600084848151811061015557fe5b6020908102919091018101516001600160a01b03168252810191909152604001600020805460ff191691151591909117905560010161013a565b5080516101a39060029060208401906101a7565b5050565b8280548282559060005260206000209081019282156101fc579160200282015b828111156101fc57825182546001600160a01b0319166001600160a01b039091161782556020909201916001909101906101c7565b5061020892915061020c565b5090565b5b80821115610208576000815560010161020d565b610507806102306000396000f3fe608060405234801561001057600080fd5b50600436106100575760003560e01c806308e0d29d1461005c5780637cc0c3a714610084578063b508c872146100dc578063d15d41501461011c578063ea74838a14610142575b600080fd5b6100826004803603602081101561007257600080fd5b50356001600160a01b03166101b0565b005b61008c610237565b60408051602080825283518183015283519192839290830191858101910280838360005b838110156100c85781810151838201526020016100b0565b505050509050019250505060405180910390f35b610108600480360360408110156100f257600080fd5b506001600160a01b038135169060200135610299565b604080519115158252519081900360200190f35b6101086004803603602081101561013257600080fd5b50356001600160a01b03166102ca565b6100826004803603602081101561015857600080fd5b810190602081018135600160201b81111561017257600080fd5b82018360208201111561018457600080fd5b803590602001918460208302840111600160201b831117156101a557600080fd5b5090925090506102d6565b3360009081526003602052604090205460ff16610213576040805162461bcd60e51b815260206004820152601c60248201527b36b9b39739b2b73232b91034b9903737ba1031b7b73a3937b63632b960211b604482015290519081900360640190fd5b6001546001600160a01b039091166000908152602081905260409020429091019055565b6060600280548060200260200160405190810160405280929190818152602001828054801561028f57602002820191906000526020600020905b81546001600160a01b03168152600190910190602001808311610271575b5050505050905090565b6001600160a01b03821660009081526020819052604081205482106102c0575060016102c4565b5060005b92915050565b60006102c48242610299565b3360009081526003602052604090205460ff16610339576040805162461bcd60e51b815260206004820152601c60248201527b36b9b39739b2b73232b91034b9903737ba1031b7b73a3937b63632b960211b604482015290519081900360640190fd5b61037582828080602002602001604051908101604052809392919081815260200183836020028082843760009201919091525061037992505050565b5050565b60005b6002548110156103d5576000600360006002848154811061039957fe5b6000918252602080832091909101546001600160a01b031683528201929092526040019020805460ff191691151591909117905560010161037c565b5060005b815181101561042e576001600360008484815181106103f457fe5b6020908102919091018101516001600160a01b03168252810191909152604001600020805460ff19169115159190911790556001016103d9565b508051600280548282556000829052610375927f405787fa12a823e0f2b7631cc41b3ba8828b3321ca811111fa75cd3aa3bb5ace918201916020860182156104ac579160200282015b828111156104ac57825182546001600160a01b0319166001600160a01b03909116178255602090920191600190910190610477565b506104b89291506104bc565b5090565b5b808211156104b857600081556001016104bd56fea26469706673582212206d32c6d7fb9b25dff276a10f8cfd5ac1ec63cb7a2d110b5330e2fd34689216f364736f6c63430007030033",
  "devdoc": {
    "kind": "dev",
    "methods": {},
    "version": 1
  },
  "userdoc": {
    "kind": "user",
    "methods": {},
    "version": 1
  },
  "storageLayout": {
    "storage": [
      {
        "astId": 6,
        "contract": "contracts/AuthProvider.sol:AuthProvider",
        "label": "_auth",
        "offset": 0,
        "slot": "0",
        "type": "t_mapping(t_address,t_uint256)"
      },
      {
        "astId": 9,
        "contract": "contracts/AuthProvider.sol:AuthProvider",
        "label": "_ttl",
        "offset": 0,
        "slot": "1",
        "type": "t_uint256"
      },
      {
        "astId": 12,
        "contract": "contracts/AuthProvider.sol:AuthProvider",
        "label": "_controllers",
        "offset": 0,
        "slot": "2",
        "type": "t_array(t_address)dyn_storage"
      },
      {
        "astId": 16,
        "contract": "contracts/AuthProvider.sol:AuthProvider",
        "label": "_isController",
        "offset": 0,
        "slot": "3",
        "type": "t_mapping(t_address,t_bool)"
      }
    ],
    "types": {
      "t_address": {
        "encoding": "inplace",
        "label": "address",
        "numberOfBytes": "20"
      },
      "t_array(t_address)dyn_storage": {
        "base": "t_address",
        "encoding": "dynamic_array",
        "label": "address[]",
        "numberOfBytes": "32"
      },
      "t_bool": {
        "encoding": "inplace",
        "label": "bool",
        "numberOfBytes": "1"
      },
      "t_mapping(t_address,t_bool)": {
        "encoding": "mapping",
        "key": "t_address",
        "label": "mapping(address => bool)",
        "numberOfBytes": "32",
        "value": "t_bool"
      },
      "t_mapping(t_address,t_uint256)": {
        "encoding": "mapping",
        "key": "t_address",
        "label": "mapping(address => uint256)",
        "numberOfBytes": "32",
        "value": "t_uint256"
      },
      "t_uint256": {
        "encoding": "inplace",
        "label": "uint256",
        "numberOfBytes": "32"
      }
    }
  }
}